:100000000C9454000C947C000C947C000C947C00A8
:100010000C947C000C947C000C947C000C947C0070
:100020000C947C000C947C000C947C000C947C0060
:100030000C947C000C947C000C947C000C947C0050
:100040000C9428030C947C000C9406010C94380149
:100050000C947C000C947C000C947C000C947C0030
:100060000C947C000C947C00010204081020408059
:1000700001020408102001020408102004040404F2
:100080000404040402020202020203030303030342
:1000900000000000250028002B00000000002400C4
:1000A00027002A009400680111241FBECFEFD8E07A
:1000B000DEBFCDBF11E0A0E0B1E0EEEAF7E002C0A4
:1000C00005900D92A031B107D9F721E0A0E1B1E090
:1000D00001C01D92AA3DB207E1F710E0C8EAD0E0E6
:1000E00004C02297FE010E94D103C43AD107C9F788
:1000F0000E9419030C94D5030C94000026E040E004
:1001000052EC61E070E084E391E00E948E0288E2AC
:1001100091E00E94BC008CE191E00E94BC0080E173
:1001200091E00C94BC00089523E030E042E050E000
:1001300069E070E088E291E00E94B20025E030E0E2
:1001400044E050E06AE070E08CE191E00E94B2008F
:1001500027E030E046E050E06BE070E080E191E0C5
:100160000C94B200FC017183608353834283358316
:100170002483138612860895CF93DF93EC0161E008
:1001800088810E94CD0061E08A810E94CD0061E0FB
:100190008C81DF91CF910C94CD00CF93DF9390E0D1
:1001A000FC01E859FF4F2491FC01E458FF4F849172
:1001B000882349F190E0880F991FFC01E656FF4F14
:1001C000A591B49180579F4FFC01C591D4919FB7E1
:1001D000611108C0F8948C91209582238C938881BA
:1001E00082230AC0623051F4F8948C91322F3095FA
:1001F00083238C938881822B888304C0F8948C910C
:10020000822B8C939FBFDF91CF9108951F920F9205
:100210000FB60F9211242F938F939F93EF93FF9319
:10022000E0914401F09145018081E0914A01F09113
:100230004B0182FD12C0908180914D018F5F8F73C1
:1002400020914E01821751F0E0914D01F0E0EC5CFD
:10025000FE4F958F80934D0101C08081FF91EF91FA
:100260009F918F912F910F900FBE0F901F90189517
:100270001F920F920FB60F9211242F933F934F931B
:100280005F936F937F938F939F93AF93BF93EF93FE
:10029000FF9384E391E00E94E601FF91EF91BF910B
:1002A000AF919F918F917F916F915F914F913F910E
:1002B0002F910F900FBE0F901F90189584E391E03F
:1002C0000E94AB0121E0892B09F420E0822F0895E0
:1002D000109237011092360188EE93E0A0E0B0E072
:1002E0008093380190933901A0933A01B0933B0178
:1002F00084E091E0909335018093340185EC90E0A7
:10030000909341018093400184EC90E090934301ED
:100310008093420180EC90E09093450180934401EA
:1003200081EC90E0909347018093460182EC90E04D
:10033000909349018093480186EC90E090934B01A3
:1003400080934A0110924D0110924E0110924F017C
:10035000109250010895FC01818D228D90E0805C07
:100360009F4F821B91098F7399270895FC01918DEE
:10037000828D981731F0828DE80FF11D858D90E008
:1003800008958FEF9FEF0895FC01918D828D98174E
:1003900061F0828DDF01A80FB11D5D968C91928D69
:1003A0009F5F9F73928F90E008958FEF9FEF089566
:1003B0008EE591E0892B49F080E090E0892B29F0CF
:1003C0000E945E0181110C9400000895FC01848D4F
:1003D000DF01A80FB11DA35ABF4F2C91848D90E06F
:1003E00001968F739927848FA689B7892C93A0894A
:1003F000B1898C9180648C93938D848D981306C001
:100400000288F389E02D80818F7D80830895CF93CA
:10041000DF93EC01888D8823C9F0EA89FB8980810C
:1004200085FD05C0A889B9898C9186FD0FC00FB6DE
:1004300007FCF5CF808185FFF2CFA889B9898C911F
:1004400085FFEDCFCE010E94E601E7CFDF91CF918E
:100450000895CF92DF92FF920F931F93CF93DF9374
:100460001F92CDB7DEB76C0181E0D60158968C9310
:1004700058975B969C915B975C968C915C979813D0
:1004800007C05096ED91FC915197808185FD2EC05B
:10049000F601038D10E00F5F1F4F0F731127F02E31
:1004A000F601848DF81211C00FB607FCF9CFD60102
:1004B0005096ED91FC915197808185FFF1CFC60157
:1004C00069830E94E6016981EBCF838DE80FF11DFE
:1004D000E35AFF4F6083D6015B960C935B9752966D
:1004E000ED91FC915397808180620CC0D6015696A5
:1004F000ED91FC91579760835096ED91FC91519747
:1005000080818064808381E090E00F90DF91CF91C3
:100510001F910F91FF90DF90CF900895BF92CF92DF
:10052000DF92EF92FF92CF93DF93EC016A017B01A0
:10053000B22EE889F98982E08083411581EE58075F
:1005400061057105A1F060E079E08DE390E0A7011D
:1005500096010E94AD032150310941095109569578
:10056000479537952795211580E1380798F0E88958
:10057000F989108260E874E88EE190E0A7019601A5
:100580000E94AD0321503109410951095695479503
:1005900037952795EC85FD853083EE85FF85208393
:1005A000188EEC89FD89B082EA89FB89808180619F
:1005B0008083EA89FB89808188608083EA89FB895E
:1005C000808180688083EA89FB8980818F7D808338
:1005D000DF91CF91FF90EF90DF90CF90BF90089583
:1005E000CF92DF92EF92FF920F931F93CF93DF93FF
:1005F0006C017A01EB01E60EF71E00E010E0CE156B
:10060000DF0561F06991D601ED91FC910190F081D7
:10061000E02DC6010995080F191FF1CFC801DF9120
:10062000CF911F910F91FF90EF90DF90CF900895A1
:1006300008950E9472030E9418030E947E00C8ED74
:10064000D1E00E9493002097E1F30E94D801F9CFF6
:100650001F920F920FB60F9211242F933F938F93F7
:100660009F93AF93BF938091D2019091D301A091BA
:10067000D401B091D5013091D10123E0230F2D3762
:1006800020F40196A11DB11D05C026E8230F029696
:10069000A11DB11D2093D1018093D2019093D3016C
:1006A000A093D401B093D5018091D6019091D70148
:1006B000A091D801B091D9010196A11DB11D8093DF
:1006C000D6019093D701A093D801B093D901BF91DF
:1006D000AF919F918F913F912F910F900FBE0F90EF
:1006E0001F901895789484B5826084BD84B581602C
:1006F00084BD85B5826085BD85B5816085BDEEE62A
:10070000F0E0808181608083E1E8F0E01082808108
:1007100082608083808181608083E0E8F0E0808176
:1007200081608083E1EBF0E0808184608083E0EB96
:10073000F0E0808181608083EAE7F0E0808184607E
:1007400080838081826080838081816080838081DA
:10075000806880831092C1000895A1E21A2EAA1B1E
:10076000BB1BFD010DC0AA1FBB1FEE1FFF1FA21761
:10077000B307E407F50720F0A21BB30BE40BF50B5E
:10078000661F771F881F991F1A9469F760957095E7
:10079000809590959B01AC01BD01CF010895EE0FAE
:0E07A000FF1F0590F491E02D0994F894FFCF0F
:1007AE00000000002902F002AB01C401B6010702ED
:00000001FF
